{
  "contractName": "Attendance",
  "abi": [
    {
      "constant": true,
      "inputs": [
        {
          "internalType": "address",
          "name": "",
          "type": "address"
        },
        {
          "internalType": "uint256",
          "name": "",
          "type": "uint256"
        }
      ],
      "name": "attendanceRecords",
      "outputs": [
        {
          "internalType": "uint256",
          "name": "date",
          "type": "uint256"
        },
        {
          "internalType": "bool",
          "name": "attended",
          "type": "bool"
        }
      ],
      "payable": false,
      "stateMutability": "view",
      "type": "function"
    },
    {
      "constant": false,
      "inputs": [
        {
          "internalType": "bool",
          "name": "_attended",
          "type": "bool"
        }
      ],
      "name": "markAttendance",
      "outputs": [],
      "payable": false,
      "stateMutability": "nonpayable",
      "type": "function"
    },
    {
      "constant": true,
      "inputs": [
        {
          "internalType": "address",
          "name": "user",
          "type": "address"
        }
      ],
      "name": "getAttendanceRecordCount",
      "outputs": [
        {
          "internalType": "uint256",
          "name": "",
          "type": "uint256"
        }
      ],
      "payable": false,
      "stateMutability": "view",
      "type": "function"
    }
  ],
  "bytecode": "0x608060405234801561001057600080fd5b506102bc806100206000396000f3fe608060405234801561001057600080fd5b50600436106100415760003560e01c80633d50e466146100465780635bc8f04b1461009e578063c820d0fb1461010b575b600080fd5b6100886004803603602081101561005c57600080fd5b81019080803573ffffffffffffffffffffffffffffffffffffffff16906020019092919050505061013b565b6040518082815260200191505060405180910390f35b6100ea600480360360408110156100b457600080fd5b81019080803573ffffffffffffffffffffffffffffffffffffffff16906020019092919080359060200190929190505050610186565b60405180838152602001821515151581526020019250505060405180910390f35b6101396004803603602081101561012157600080fd5b810190808035151590602001909291905050506101d1565b005b60008060008373ffffffffffffffffffffffffffffffffffffffff1673ffffffffffffffffffffffffffffffffffffffff168152602001908152602001600020805490509050919050565b6000602052816000526040600020818154811061019f57fe5b9060005260206000209060020201600091509150508060000154908060010160009054906101000a900460ff16905082565b60004290506000803373ffffffffffffffffffffffffffffffffffffffff1673ffffffffffffffffffffffffffffffffffffffff1681526020019081526020016000206040518060400160405280838152602001841515815250908060018154018082558091505090600182039060005260206000209060020201600090919290919091506000820151816000015560208201518160010160006101000a81548160ff021916908315150217905550505050505056fea265627a7a72315820cc3e4900b1997bf4cee8421abcedfb39b50b6e255384205b425e911cb2b81a0b64736f6c63430005100032",
  "source": "//blockhain/contracts/Attendance.sol\r\npragma solidity 0.5.16;\r\n\r\ncontract Attendance {\r\n    // Define a struct to hold attendance data\r\n    struct AttendanceRecord {\r\n        uint date;\r\n        bool attended;\r\n    }\r\n\r\n    // Mapping from user address to their attendance records\r\n    mapping(address => AttendanceRecord[]) public attendanceRecords;\r\n\r\n    // Function to mark attendance\r\n    function markAttendance(bool _attended) public {\r\n        uint today = now; // 'now' is an alias for 'block.timestamp'\r\n        attendanceRecords[msg.sender].push(AttendanceRecord(today, _attended));\r\n    }\r\n\r\n    // Function to get attendance record count for a user\r\n    function getAttendanceRecordCount(address user) public view returns (uint) {\r\n        return attendanceRecords[user].length;\r\n    }\r\n}\r\n",
  "sourcePath": "D:\\CS\\Third Semester\\ir-attendance-system\\blockchain\\contracts\\Attendance.sol",
  "compiler": {
    "name": "solc",
    "version": "0.5.16+commit.9c3226ce.Emscripten.clang"
  },
  "schemaVersion": "3.4.16",
  "updatedAt": "2023-12-14T02:24:02.067Z",
  "devdoc": {
    "methods": {}
  },
  "userdoc": {
    "methods": {}
  }
}